:100000000C942A000C9434000C9434000C943400AA
:100010000C9434000C9434000C945E000C94340066
:100020000C9434000C9434000C9434000C94340080
:100030000C9434000C9434000C9434000C94340070
:100040000C9434000C9434000C9434000C94340060
:100050000C94340011241FBECFE5D4E0DEBFCDBF29
:100060000E9436000C9486000C940000CF93DF931E
:10007000CDB7DEB778948AE390E02AE330E0F90167
:1000800020812160FC0120838EE490E02EE430E0AA
:10009000F90120812B60FC01208389E590E029E5AE
:1000A00030E0F90120812061FC0120838AE490E0A6
:1000B00028E03DE3FC0131832083FFCF1F920F92A4
:1000C00000905F000F9211242F933F938F939F9383
:1000D000EF93FF93CF93DF93CDB7DEB78BE390E041
:1000E0002BE330E0F901308121E02327FC0120835C
:1000F000DF91CF91FF91EF919F918F913F912F9140
:100100000F9000925F000F901F901895F894FFCF0A
:00000001FF
