:100000000C942A000C943F000C943F000C943F0089
:100010000C943F000C943F000C943F000C943F0064
:100020000C943F000C943F000C943F000C943F0054
:100030000C943F000C943F000C943F000C943F0044
:100040000C943F000C943F000C943F000C943F0034
:100050000C943F0011241FBECFE5D4E0DEBFCDBF1E
:1000600010E0A0E6B0E0E0E4F3E002C005900D92FD
:10007000A837B107D9F70E9493010C949E010C9404
:100080000000CF93DF931F92CDB7DEB7898381E362
:1000900090E02FEFFC01208382E390E02981FC01B6
:1000A000208388E390E028E330E0F9012081297F74
:1000B000FC01208388E390E028E330E0F90120810F
:1000C0002560FC012083000000000000000088E3A0
:1000D00090E028E330E0F90120812A7FFC012083B1
:1000E00081E390E0FC0110820F90DF91CF910895A1
:1000F000CF93DF931F92CDB7DEB781E390E0FC0191
:10010000108288E390E028E330E0F9012081266046
:10011000FC0120830000000080E390E0FC0180816E
:10012000898388E390E028E330E0F9012081297F8A
:10013000FC01208389810F90DF91CF910895CF93A7
:10014000DF93CDB7DEB700000E9478008823E4F388
:10015000DF91CF910895CF93DF931F92CDB7DEB794
:10016000898381E390E02FEFFC01208382E390E01C
:100170002981FC01208388E390E028E330E0F90145
:100180002081287FFC01208388E390E028E330E091
:10019000F90120812460FC012083000000000000A0
:1001A000000088E390E028E330E0F90120812B7F14
:1001B000FC01208381E390E0FC0110820F90DF912D
:1001C000CF910895CF93DF93CDB7DEB728970FB6C1
:1001D000F894DEBF0FBECDBF87E390E027E330E0A9
:1001E000F90120812760FC01208388E390E0FC0175
:1001F00010828FEF9FEF9A83898389819A8101977B
:10020000F1F79A83898380E30E94AB008FEF9FEF21
:100210009C838B838B819C810197F1F79C838B83DB
:1002200080E30E94AB008FEF9FEF9E838D838D81D3
:100230009E810197F1F79E838D8380E30E94AB003E
:100240008FEF9FEF98878F838F8198850197F1F7C4
:1002500098878F8388E30E94AB000E949F008FE005
:100260000E94AB000E949F0081E00E94AB000E94B0
:100270009F0086E00E94AB0028960FB6F894DEBF80
:100280000FBECDBFDF91CF910895CF93DF9300D004
:10029000CDB7DEB79A8389830DC00E949F00898104
:1002A0009A819C012F5F3F4F3A832983FC01808113
:1002B0000E94410089819A81FC018081882369F72D
:1002C0000F900F90DF91CF910895CF93DF931F92FE
:1002D000CDB7DEB789830E949F0080E30E94410072
:1002E0000E949F0088E70E9441000E949F00898130
:1002F00082958F70882F90E0805A9F4FFC018081FB
:100300000E9441000E949F008981882F90E08F7099
:100310009927805A9F4FFC0180810E9441000F90D5
:10032000DF91CF910895CF93DF93CDB7DEB70E94D1
:10033000E20081E790E00E944501FFCFF894FFCFF3
:10034000303132333435363738394142434445460B
:080350000068656C6C6F000091
:00000001FF
