:100000000C942A000C9434000C9434000C943400AA
:100010000C9434000C9434000C9434000C94340090
:100020000C9434000C9434000C9434000C94340080
:100030000C9434000C9434000C9434000C94340070
:100040000C9434000C9434000C9434000C94340060
:100050000C94340011241FBECFE5D4E0DEBFCDBF29
:100060000E9436000C9451000C9400008FE087BB76
:1000700086B1846886B987B1806C87B987B1887F7B
:10008000816087B9369A3699FECF84B125B190E068
:10009000922B029718F081E088BBFFCF82E088BBEB
:0600A000FCCFF894FFCF35
:00000001FF
