:100000000C942A000C943C000C943C000C943C0092
:100010000C943C000C943C000C943C000C943C0070
:100020000C943C000C943C000C943C000C943C0060
:100030000C943C000C943C000C943C000C943C0050
:100040000C943C000C943C000C943C000C943C0040
:100050000C943C0011241FBECFE5D4E0DEBFCDBF21
:1000600020E0A0E6B0E001C01D92A436B207E1F79F
:100070000E9478000C949C000C94000085E085BBE5
:100080002FE38DE093E0215080409040E1F700C0E5
:100090000000089584E085BB2FE986E891E02150B7
:1000A00080409040E1F700C0000081E085BB2FE573
:1000B0008AEE90E0215080409040E1F700C00000BF
:1000C000089581E085BB2FE986E891E021508040CA
:1000D0009040E1F700C0000084E085BB2FE58AEE88
:1000E00090E0215080409040E1F700C0000008956A
:1000F0001ABA8FEF84BB99B391709093600039B3B3
:1001000032703093610089B384708093620029B3A8
:10011000287020936300332329F0222319F00E94D2
:100120003E00E9CF992319F00E946100E4CF8823B3
:0C01300011F30E944A00DFCFF894FFCFCB
:00000001FF
