:100000000C942A000C9434000C9434000C943400AA
:100010000C9434000C9434000C9434000C94340090
:100020000C9434000C9434000C9434000C94340080
:100030000C9434000C9434000C9434000C94340070
:100040000C9434000C9434000C9434000C94340060
:100050000C94340011241FBECFE5D4E0DEBFCDBF29
:100060000E9436000C9457000C94000087E08ABB75
:1000700021E092E084E02BBB3FE34DE053E03150C0
:1000800040405040E1F700C000009BBBE3E2F4EFCA
:100090003197F1F700C000008BBBFFE936E841E083
:1000A000F15030404040E1F700C00000E4CFF89448
:0200B000FFCF80
:00000001FF
