:100000000C942A000C9434000C9434000C943400AA
:100010000C9434000C9434000C9434000C94340090
:100020000C9434000C9434000C9434000C94340080
:100030000C9434000C9434000C9436000C9434006E
:100040000C9434000C9434000C9434000C94340060
:100050000C94340011241FBECFE5D4E0DEBFCDBF29
:100060000E9454000C945D000C9400001F920F92AB
:100070000FB60F9211242F938F939F9384B125B1C4
:100080009FE097BB90E0922B8132934010F081E08B
:1000900001C082E088BB369A9F918F912F910F907B
:1000A0000FBE0F901F901895329A87B1806C87B958
:0E00B000339A379A7894369AFFCFF894FFCFA0
:00000001FF
