:100000000C942A000C943C000C943C000C943C0092
:100010000C943C000C943C000C943C000C943C0070
:100020000C943C000C943C000C943C000C943C0060
:100030000C943C000C943C000C9453000C943C0039
:100040000C943C000C943C000C943C000C943C0040
:100050000C943C0011241FBECFE5D4E0DEBFCDBF21
:1000600020E0A0E6B0E001C01D92A837B207E1F79A
:100070000E94D5000C940E030C940000329A87B1B4
:10008000806E87B9339A379A089581B38FEF81BB19
:100090008FB5826F8FBD8EB589618EBD87EA91E67F
:1000A00097BD86BD08951F920F920FB60F9211242F
:1000B0002F933F934F935F936F937F938F939F9370
:1000C000AF93BF93EF93FF9334B127B12295220FE3
:1000D000220F207C85B1329536953695337044E0F9
:1000E000849FC0011124832B203489F46FEF73E0C7
:1000F000681B790B80E090E00E94F501609370002E
:1001000070937100809372009093730039C0211135
:1001100011C06FEF73E0681B790B80E090E00E94E4
:10012000F50160937400709375008093760090934E
:10013000770026C0203889F46FEF73E0681B790BD5
:1001400080E090E00E94F50160936C0070936D0078
:1001500080936E0090936F0013C0203C89F427B108
:100160002C7F27B9BC0180E090E00E94F5016093EC
:1001700068007093690080936A0090936B0003C0DD
:1001800087B18F5F87B9369AFF91EF91BF91AF9199
:100190009F918F917F916F915F914F913F912F919F
:1001A0000F900FBE0F901F9018950E943E000E9466
:1001B00045007894369A83ED90E39BBD8ABD99BD46
:1001C00088BDC3EDD0E320916C0030916D0040916B
:1001D0006E0050916F006091740070917500809175
:1001E0007600909177000E94600120E030E040EAC4
:1001F00050E40E94AB026B017C0120E030E048E457
:1002000052E40E94A7021816DCF420E030E048E433
:1002100052E4C701B6010E94AB029B01AC0160E051
:100220007CE483E496E40E9460010E94C9017BBDE6
:100230006ABD87E893E10197F1F700C00000C3CFE2
:10024000DBBDCABD20916C0030916D0040916E0005
:1002500050916F00609174007091750080917600EC
:10026000909177000E94600120E030E040EA50E485
:100270000E94AB026B017C0120E030E048E452ECCC
:100280000E94C50187FF19C020E030E048E452E435
:10029000C701B6010E94AB0220E03CE443E456E40F
:1002A0000E9461010E94C90179BD68BD87E893E1A0
:1002B0000197F1F700C00000C5CFD9BDC8BD83CFFD
:1002C0005058BB27AA270ED008C1F9D030F0FED075
:1002D00020F031F49F3F11F41EF4EEC00EF4E095CF
:1002E000E7FBE4C0E92F0AD180F3BA17620773076E
:1002F0008407950718F071F49EF522C10EF4E0957D
:100300000B2EBA2FA02D0B01B90190010C01CA01CF
:10031000A0011124FF27591B99F0593F50F4503E7A
:1003200068F11A16F040A22F232F342F4427585F6C
:10033000F3CF469537952795A795F0405395C9F784
:100340007EF41F16BA0B620B730B840BBAF091503C
:10035000A1F0FF0FBB1F661F771F881FC2F70EC0DB
:10036000BA0F621F731F841F48F4879577956795AE
:10037000B795F7959E3F08F0B3CF9395880F08F097
:100380009927EE0F9795879508956CD008F481E032
:100390000895BCD088F09F5790F0B92F9927B75196
:1003A000A0F0D1F0660F771F881F991F1AF0BA9539
:1003B000C9F712C0B13081F0C3D0B1E00895C0C018
:1003C000672F782F8827B85F39F0B93FCCF386952F
:1003D00077956795B395D9F73EF49095809570958C
:1003E00061957F4F8F4F9F4F0895E89409C097FB09
:1003F0003EF490958095709561957F4F8F4F9F4FFC
:100400009923A9F0F92F96E9BB279395F69587953F
:1004100077956795B795F111F8CFFAF4BB0F11F402
:1004200060FF1BC06F5F7F4F8F4F9F4F16C08823A9
:1004300011F096E911C0772321F09EE8872F762FDF
:1004400005C0662371F096E8862F70E060E02AF020
:100450009A95660F771F881FDAF7880F969587950C
:1004600097F90895990F0008550FAA0BE0E8FEEFE1
:1004700016161706E807F907C0F012161306E40768
:10048000F50798F0621B730B840B950B39F40A2661
:1004900061F0232B242B252B21F408950A2609F43F
:1004A000A140A6958FEF811D811D089597F99F6743
:1004B00080E870E060E008959FEF80EC08950024EC
:1004C0000A941616170618060906089500240A94B9
:1004D00012161306140605060895092E0394000C3F
:1004E00011F4882352F0BB0F40F4BF2B11F460FFCE
:1004F00004C06F5F7F4F8F4F9F4F089557FD9058F7
:10050000440F551F59F05F3F71F04795880F97FBD7
:10051000991F61F09F3F79F0879508951216130691
:100520001406551FF2CF4695F1DF08C016161706C0
:100530001806991FF1CF86957105610508940895F5
:10054000E894BB2766277727CB0197F908958ADFC0
:1005500008F48FEF08950BD0C0CFB1DF28F0B6DFDD
:1005600018F0952309F0A2CFA7CF1124EACFC6DF58
:10057000A0F3959FD1F3950F50E0551F629FF001B6
:10058000729FBB27F00DB11D639FAA27F00DB11D0F
:10059000AA1F649F6627B00DA11D661F829F222798
:1005A000B00DA11D621F739FB00DA11D621F839F1F
:1005B000A00D611D221F749F3327A00D611D231FF5
:1005C000849F600D211D822F762F6A2F11249F5743
:1005D00050408AF0E1F088234AF0EE0FFF1FBB1F66
:1005E000661F771F881F91505040A9F79E3F510505
:1005F00070F05CCFA6CF5F3FECF3983EDCF38695BE
:1006000077956795B795F795E7959F5FC1F7FE2BAF
:10061000880F911D9695879597F90895F894FFCFC7
:00000001FF
